:100000009FC00000B8C00000B6C00000B4C000002F
:10001000B2C00000B0C00000AEC00000ACC0000024
:10002000AAC00000A8C00000A6C0000050C4000084
:10003000F5C40000A0C000009EC000009CC00000ED
:100040009AC0000098C0000096C0000094C0000054
:1000500092C0000090C000008EC00000FEC10000F1
:100060008AC0000088C0000086C0000084C0000074
:1000700082C000006A058C0576068C057606CE05E2
:10008000EB0576063E0650062E0341007200640022
:10009000750069006E006F00200044007500650067
:1000A0002000500072006F0067002E0020005000FA
:1000B0006F0072007400000032034100720064009F
:1000C000750069006E006F0020002800770077003F
:1000D00077002E00610072006400750069006E00F8
:1000E0006F002E0063006300290000000403090470
:1000F00009023E00020100C03209040000010202B0
:100100000100052400011004240206052406000154
:10011000070582030800FF09040100020A0000002D
:100120000705040240000107058302400001120197
:1001300010010200000841233D0001000102DC0122
:1001400011241FBECFEFD2E0DEBFCDBF11E0A0E093
:10015000B1E0EEE2F0E102C005900D92A831B107E6
:10016000D9F722E0A8E1B1E001C01D92A833B2079F
:10017000E1F773D05AC744CFFC01E058FF4FA0818C
:10018000B1816C93A081B1819D012F5F3F4F31837D
:1001900020832E173F0721F412969C938E9311977C
:1001A0002FB7F894FC01EC57FF4F80818F5F80835D
:1001B0002FBF0895DC01AE57BF4FED91FC91119711
:1001C00041911196FC93EE939C0120583F4FE2170A
:1001D000F30711F48D939C932FB7F894FC01EC571F
:1001E000FF4F9081915090832FBF842F08958823D3
:1001F00011F03F9A01C03F9847980895882311F065
:1002000046980895469A089584B7877F84BF88E109
:100210000FB6F89480936000109260000FBE80E0EB
:10022000E6DF469A3E9A87E690E09093CD00809371
:10023000CC0086E08093CA001092C80088E18093C9
:10024000C900539A5A9A8AB180638AB98BB1806384
:100250008BB932D384E085BD0895D6DF2FB7F894EB
:1002600087EA91E0909328028093270290932A02D4
:10027000809329022FBF2FB7F89482E291E09093E8
:10028000A3018093A2019093A5018093A4012FBFA5
:100290007894D3E09FB7F89480912B029FBF803869
:1002A00049F082E091E052D697FD04C0682F87EABA
:1002B00091E062DF8FB7F894C091A6018FBFA89933
:1002C00003C0C13608F452C0A89A8091A6018823C1
:1002D00019F05D98D0931F01CC2349F082E291E0A0
:1002E00069DF682F82E091E0D6D5C150F5CF8091CB
:1002F0001F01882341F080911F01815080931F01CD
:10030000811101C05D9A80912001882341F0809184
:100310002001815080932001811101C05C9A80915D
:100320001D0190911E0118161906E4F4CC97CD9783
:1003300010F481E001C080E061DF80911D019091A7
:100340001E010197C29710F481E001C080E04FDFE9
:1003500080911D0190911E01019790931E01809341
:100360001D0104C080E04ADF80E041DF9FB7F894C0
:1003700080912B029FBF882361F087EA91E01ADF0A
:100380009091C80095FFFCCF8093CE005C98D093ED
:10039000200182E091E0CCD5B6D47CCF82E091E020
:1003A0002DC582E091E0C1C4CF92DF92EF92FF921F
:1003B000CF93FC018489813031F0823011F0C0E0AC
:1003C00003C0C0E201C0C0E38389823009F4C86081
:1003D0008589873031F0883031F0863029F4C26069
:1003E00003C0C46001C0C6601092C9001092C8006A
:1003F0001092CA00C784D088E188F28881E090EB2F
:10040000C91694E0D906E104F10409F080E0809374
:100410001801C701B60122E030E040E050E0E3D52A
:1004200020583B47414E5F4FCA01B901A7019601D1
:10043000B8D5215031093093CD002093CC00C09322
:10044000CA0082E08093C80088E98093C900CF91F8
:10045000FF90EF90DF90CF9008951F920F920FB60C
:100460000F9211242F933F934F935F936F937F933A
:100470008F939F93AF93BF93EF93FF936091CE00C1
:100480008EB3843019F482E291E076DEFF91EF9131
:10049000BF91AF919F918F917F916F915F914F919C
:1004A0003F912F910F900FBE0F901F9018952091A4
:1004B0001C0120931B0130911A0130931901FC019A
:1004C0009585892F817080931C01969591709093EA
:1004D0001A0190911801992319F088E790E006C05D
:1004E000211108C0882331F082E390E090931E012F
:1004F00080931D010895292F33272230310559F0AB
:100500002330310569F021303105F9F482E190E0C2
:100510002EE231E01EC08EE390E020EF30E019C003
:1005200099278130910541F08230910541F0892B66
:1005300061F4ECEEF0E005C0E8EBF0E002C0E8E8C2
:10054000F0E0849190E09F0104C080E090E020E022
:1005500030E0FA0131832083089528E030E040E064
:100560002817390720F44F5F220F331FF9CF842F4C
:100570008295807F08958093E900EBEEF0E0808122
:1005800081608083EDEEF0E010826093EC004083A8
:100590008091EE00881F8827881F08951092F4002C
:1005A00080E08093E9001092F0001092E800109231
:1005B000ED009091EB009E7F9093EB008F5F853074
:1005C00081F708958091300287FD05C08091E80091
:1005D00080FF0DC010C08091E80082FD04C08EB382
:1005E0008111F9CF08958091E8008B7707C08EB311
:1005F0008111ECCF08958091E8008E778093E80018
:10060000089585E69091EC0090FF05C09091E80078
:1006100090FF05C01BC09091E80092FD17C09EB3EB
:100620009923B1F09EB39530A9F09091EB0095FD20
:1006300013C09091E10092FFE5CF9091E1009B7F84
:100640009093E1008150F1F684E0089580E00895F0
:1006500082E0089583E0089581E0089520913602B4
:10066000309137022617370748F06115710539F4C4
:100670002091E8002E772093E80001C0B90130E016
:100680006115710591F12091E80023FD38C020919A
:10069000E80022FF06C08091E80082FF29C080E0C8
:1006A00008952EB3222369F12EB3253061F12091F4
:1006B000E80020FFE5CF2091F200FC01CF01611599
:1006C000710549F0283038F481918093F100615030
:1006D00071092F5FF3CF31E0283009F030E020912D
:1006E000E8002E772093E800CBCF3111CCCFD3CFC9
:1006F0008EB3882331F08EB3853069F604C081E073
:10070000089582E0089583E00895209136023091A3
:1007100037022617370748F06115710539F4209123
:10072000E8002E772093E80001C0B90130E06115A0
:10073000710599F12091E80023FD39C02091E8006E
:1007400022FF06C08091E80082FF2AC080E0089561
:100750002EB3222371F12EB3253069F12091E800E8
:1007600020FFE5CF2091F200FC01CF01611571055A
:1007700051F0283040F484918093F1006150710968
:100780002F5F3196F2CF31E0283009F030E0209130
:10079000E8002E772093E800CACF3111CBCFD2CF1B
:1007A0008EB3882331F08EB3853061F604C081E0CA
:1007B000089582E0089583E008956115710529F494
:1007C0002091E8002B772093E8006115710549F12D
:1007D0002091E80023FD2AC02EB3222359F12EB325
:1007E000253051F12091E80022FFF2CFFC018091E9
:1007F000F200882371F09F012F5F3F4FC9014091A4
:10080000F10040836150710961157105C9F2F90168
:10081000EECFCF01D5CF8EB3882361F08EB3853074
:1008200059F08091E80080FFF6CF02C081E0089582
:1008300080E0089582E0089583E0089542D044D096
:100840001EBA10922E0210922D0210922C0284E0F9
:1008500089BD89B5826089BD09B400FEFDCF809154
:10086000D800982F9F779093D80080688093D80005
:10087000809163008E7F809363008091D8008F7D8C
:100880008093D8008091E0008E7F8093E00080917B
:10089000E1008E7F8093E1008091E200816080938F
:1008A000E2008091E100877F8093E1008091E20087
:1008B00088608093E2000895C1DF81E080932F0279
:1008C00008951092E20008951092E10008951F9299
:1008D0000F920FB60F9211242F933F934F935F9374
:1008E0006F937F938F939F93AF93BF93EF93FF93F8
:1008F0008091E10080FF1BC08091E20080FF17C063
:100900008091E1008E7F8093E1008091E2008E7FF4
:100910008093E2008091E20080618093E200809108
:10092000D80080628093D80019BC1EBAEBD18091A8
:10093000E10084FF29C08091E20084FF25C084E0AB
:1009400089BD89B5826089BD09B400FEFDCF809163
:10095000D8008F7D8093D8008091E1008F7E8093B6
:10096000E1008091E2008F7E8093E2008091E200BE
:1009700081608093E20080912E02882311F084E050
:1009800001C081E08EBBBED18091E10083FF27C012
:100990008091E20083FF23C08091E100877F8093F4
:1009A000E10082E08EBB10922E028091E1008E7FEA
:1009B0008093E1008091E2008E7F8093E20080913D
:1009C000E20080618093E200E9DD42E060E080E0E7
:1009D000D2DD8091F00088608093F00093D1809107
:1009E000E10082FF0AC08091E20082FF06C0809190
:1009F000E1008B7F8093E10085D1FF91EF91BF9162
:100A0000AF919F918F917F916F915F914F913F91A6
:100A10002F910F900FBE0F901F9018951F920F925D
:100A20000FB60F9211242F933F934F935F936F93C1
:100A30007F938F939F93AF93BF93CF93EF93FF9346
:100A4000E9EEF0E0C081C7701082E0EFF0E0808155
:100A5000877F808378941CD0F894E9EEF0E01082D0
:100A6000A0EFB0E08C9188608C93C083FF91EF91F0
:100A7000CF91BF91AF919F918F917F916F915F9136
:100A80004F913F912F910F900FBE0F901F9018958F
:100A90001F93CF93DF93CDB7DEB7AA970FB6F89425
:100AA000DEBF0FBECDBFE0E3F2E08091F1008193A5
:100AB00022E0E833F207C9F7209130023091310289
:100AC000832F90E08A30910508F010C1FC01E65CAC
:100AD000FF4FA5C2203881F0223809F007C180916C
:100AE000340287708093E9008091EB0085FB8827B2
:100AF00080F91092E90006C080912C0290912D029D
:100B0000911182609091E800977F9093E800809324
:100B1000F1001092F100BDC0822F8D7F09F0E6C078
:100B2000222319F0223061F0D2C08091320281304C
:100B300009F0CDC0333009F080E080932D0228C049
:100B400080913202811124C020913402277009F46F
:100B5000BEC02093E9008091EB0080FFB8C0809177
:100B6000EB00333011F4806211C080618093EB00A0
:100B700081E090E0022E01C0880F0A94EAF780938A
:100B8000EA001092EA008091EB0088608093EB000D
:100B90001092E9008091E800877F7EC02111A6C0F5
:100BA000109132028091E800877F8093E8000ADD8F
:100BB0008091E80080FD04C08EB38111F9CF87C019
:100BC000812F8F7711F093E001C092E09EBB806887
:100BD0008093E3007CC02058223008F087C08091C9
:100BE0003202909133028C3D23E0920781F583E03D
:100BF0008A838AE289834FB7F894DE01139620E056
:100C00003EE051E2E32FF0E050935700E49120FFE3
:100C100003C0E295EF703F5FEF7090E39E0F9A3351
:100C200010F0E95C01C0E92F8E2F90E08D939D9329
:100C30002F5F243139F74FBF8091E800877F809381
:100C4000E8006AE270E0CE01019608DD11C0AE0155
:100C50004F5F5F4F609134024EDC0097C1F12091ED
:100C6000E800277F2093E800BC0189819A814DDD4F
:100C70008091E8008B778093E80029C02038B1F597
:100C80008091E800877F8093E80080912E02809316
:100C9000F1008091E8008E778093E80093DC17C024
:100CA000211124C090913202923088F48091E800A2
:100CB000877F8093E80090932E0284DC80912E023F
:100CC000882311F084E001C083E08EBB67DB809154
:100CD000E80083FF0DC08091EB0080628093EB0001
:100CE0008091E800877F8093E80002C05ADBEFCF55
:100CF000AA960FB6F894DEBF0FBECDBFDF91CF919D
:100D00001F9108950895CF938EB3882359F0C09111
:100D1000E900C7701092E9008091E80083FDB8DE19
:100D2000C093E900CF9108950895CF93DF93EC012C
:100D30008091E80083FF5FC0888190E020913402B9
:100D4000309135022817390709F055C080913102DA
:100D5000813249F018F48032C9F04DC0823261F11D
:100D60008332C9F148C080913002813A09F043C012
:100D70008091E800877F8093E80067E070E0CE0113
:100D80000F966CDC8091E8008B7713C08091300265
:100D9000813289F58091E800877F8093E80067E0E1
:100DA00070E0CE010F9609DDCE01FEDA8091E800F9
:100DB0008E778093E8001FC0809130028132D9F491
:100DC0008091E800877F8093E800809132028D87D0
:100DD000CE016DDB0DC080913002813261F48091D3
:100DE000E800877F8093E80060913202CE019CDFAB
:100DF000DF91CF91E7CBDF91CF9108950F931F93B0
:100E0000CF93DF93EC01FC013D9689E0DF011D9259
:100E10008A95E9F72A813B818C81882311F014E0BF
:100E200001C010E00981C90198DB412F482B4260C5
:100E300061E8802FA0DB882341F12E813F818885E6
:100E4000882311F014E001C010E00D81C90185DB99
:100E5000412F482B426060E8802F8DDB8823A9F06A
:100E60002A853B858C85882311F014E001C010E0B1
:100E7000C985C90172DB412F482B426061EC8C2F80
:100E8000DF91CF911F910F9176CB80E0DF91CF91D1
:100E90001F910F910895CF93C62F2EB32430E9F4FC
:100EA000FC014785508961897289452B462B472B68
:100EB000A1F081818093E9008091E80085FF04C062
:100EC000C093F10080E00AC08091E8008E778093A3
:100ED000E80097DB8823A1F301C082E0CF91089559
:100EE0002EB3243019F5FC01478550896189728938
:100EF000452B462B472BD1F081818093E9008091CF
:100F0000F200882389F09091E8008091E8008E77C4
:100F10008093E80095FD08C074DB811108C08091C2
:100F2000E8008E778093E80080E0089582E00895DD
:100F30002EB3243051F4FC014785508961897289B0
:100F4000452B462B472B09F0CBCF08952EB32430E9
:100F500019F08FEF9FEF0895FC0147855089618953
:100F60007289452B462B472BA1F385818093E9009D
:100F70008091E80082FFEDCF8091F200882321F07C
:100F80002091F10030E002C02FEF3FEF8091F2009E
:100F9000811105C08091E8008B778093E800C9013A
:100FA0000895A1E21A2EAA1BBB1BFD010DC0AA1FAA
:100FB000BB1FEE1FFF1FA217B307E407F50720F0C2
:100FC000A21BB30BE40BF50B661F771F881F991F3D
:100FD0001A9469F760957095809590959B01AC0186
:100FE000BD01CF010895052E97FB16F400940FD094
:100FF00057FD05D0D6DF07FC02D046F408C0509557
:101000004095309521953F4F4F4F5F4F08959095F4
:101010008095709561957F4F8F4F9F4F0895EE0F8C
:0E102000FF1F0590F491E02D0994F894FFCF86
:10102E00140000034000000440000002080000000D
:08103E000000000000000000AA
:00000001FF
